:100000000C94DA000C9402010C9402010C9402018D
:100010000C9402010C9402010C9402010C94020154
:100020000C9402010C9402010C9402010C9417052B
:100030000C9402010C9402010C9402010C94020134
:100040000C9475040C9402010C94E5040C94BF0408
:100050000C9402010C9402010C9402010C94020114
:100060000C9402010C94020100407A10F35A00A093
:10007000724E18090010A5D4E80000E87648170071
:1000800000E40B54020000CA9A3B000000E1F505B1
:10009000000080969800000040420F000000A086FB
:1000A00001000000102700000000E803000000002D
:1000B0006400000000000A000000000001000000D1
:1000C00000002C76D888DC674F0823DFC1DFAE59EB
:1000D000E1B1B796E5E3E453C63AE651997696E87E
:1000E000E6C28426EB898C9B62ED407C6FFCEFBC02
:1000F0009C9F40F2BAA56FA5F490055A2AF75C932D
:100100006B6CF9676DC11BFCE0E40D47FEF520E662
:10011000B500D0ED902E0300943577050080841E45
:10012000080000204E0A000000C80C333333330FA0
:10013000986E12831141EF8D2114893BE65516CF3D
:10014000FEE6DB18D1844B381BF77C1D901DA4BB49
:10015000E424203284725E228100C9F124ECA1E5FE
:100160003D27000000080002010000030407000012
:1001700000000000000000000000250028002B0007
:1001800000000000240027002A00040404040404E2
:100190000404020202020202030303030303010236
:1001A0000408102040800102040810200102040805
:1001B0001020D80511241FBECFEFD8E0DEBFCDBF81
:1001C00011E0A0E0B1E0EEE5FDE102C005900D9286
:1001D000AE31B107D9F722E0AEE1B1E001C01D9226
:1001E000AE31B207E1F710E0CAEDD0E004C02197CC
:1001F000FE010E94390CC93DD107C9F70E94510682
:100200000C94AD0E0C94000090E0FC01E256FE4F01
:100210002491FC01E657FE4F8491882399F090E0E9
:10022000880F991FFC01E058FE4FA591B491FC0185
:10023000EA58FE4F859194918FB7F894EC91E22B98
:10024000EC938FBF089590E0FC01EE59FE4F24918E
:10025000FC01E256FE4F3491FC01E657FE4FE4915B
:10026000EE2309F43CC0222339F1233091F038F415
:100270002130A9F0223001F584B58F7D12C02730DE
:1002800091F02830A1F02430B9F4809180008F7D66
:1002900003C0809180008F77809380000DC084B56B
:1002A0008F7784BD09C08091B0008F7703C08091A3
:1002B000B0008F7D8093B000F0E0EE0FFF1FEA5892
:1002C000FE4FA591B4919FB7F894611104C08C9131
:1002D0003095382302C0EC913E2B3C939FBF08958C
:1002E000CF92DF92EF92FF920F931F93CF93DF9302
:1002F0006C017A018B01C0E0D0E0CE15DF0581F002
:10030000D8016D918D01D601ED91FC910190F081A4
:10031000E02DC6010995892B11F02196EECF7E01C3
:10032000C701DF91CF911F910F91FF90EF90DF9068
:10033000CF900895089580E090E00895FC01538DDA
:10034000448D252F30E0842F90E0821B930B5417AF
:1003500010F0CF96089501970895FC01918D828D3C
:10036000981761F0828DDF01A80FB11D5D968C9109
:10037000928D9F5F9F73928F90E008958FEF9FEF14
:100380000895FC01918D828D981731F0828DE80FD0
:10039000F11D858D90E008958FEF9FEF0895FC018A
:1003A000918D228D892F90E0805C9F4F821B910957
:1003B0008F739927089582E591E00E94CF0121E093
:1003C000892B09F420E0822F0895FC01848DDF0140
:1003D000A80FB11DA35ABF4F2C91848D90E00196B8
:1003E0008F739927848FA689B7892C93A089B189A7
:1003F0008C91837080648C93938D848D981306C048
:100400000288F389E02D80818F7D80830895EF92AB
:10041000FF920F931F93CF93DF93EC0181E0888FBE
:100420009B8D8C8D981305C0E889F989808185FDA5
:1004300026C0F62E0B8D10E00F5F1F4F0F73112794
:10044000E02E8C8DE8120CC00FB607FCFACFE889BD
:10045000F989808185FFF5CFCE010E94E501F1CFBA
:100460008B8DFE01E80FF11DE35AFF4FF0829FB71D
:10047000F8940B8FEA89FB89808180620AC09FB75C
:10048000F894EE89FF896083E889F9898081837017
:10049000806480839FBF81E090E0DF91CF911F91C6
:1004A0000F91FF90EF900895CF93DF93EC01888D2B
:1004B0008823C9F0EA89FB89808185FD05C0A88968
:1004C000B9898C9186FD0FC00FB607FCF5CF8081EE
:1004D00085FFF2CFA889B9898C9185FFEDCFCE0138
:1004E0000E94E501E7CFDF91CF91089580E090E091
:1004F000892B29F00E94DB0181110C9400000895E2
:10050000CF92DF92EF92FF92CF93DF93EC016032B4
:1005100082E078070CF03DC077FD06C0653B7105B1
:100520002CF064EB70E002C060E070E0898128E8A4
:1005300030E06901C81AD10887FDD394CC0CDD1CCA
:10054000CC0CDD1C0D2C000CEE08FF088A8128E580
:1005500032E0281B310987FD3395220F331F220F0C
:10056000331FC901330FAA0BBB0B9C01AD012C1922
:100570003D094E095F09DB010E94950B24EB30E039
:1005800040E050E00E946B0BC20ED31EE41EF51E2D
:10059000B60138813C3080F5298188E890E0821BE3
:1005A000910927FD9395880F991F880F991F681748
:1005B000790784F08A8148E552E0481B510987FD9C
:1005C0005395440F551F440F551FCB01461757072E
:1005D0000CF4CA010297880F991F4FB7F894232F84
:1005E00030E0F901EE0FFF1F2E0F3F1FF901E1511F
:1005F000FE4F928381834FBFDF91CF91FF90EF90A9
:10060000DF90CF900895892B79F41092800082E0DA
:10061000809381001092850010928400B19A80919D
:100620006F00826080936F0008950E94980E0F9370
:100630001F93CF93DF93EC0188819981009729F074
:100640002A813B812617370788F48B016F5F7F4F24
:100650000E94D20D009761F0998388831B830A83DF
:100660002C813D81232B11F4FC01108281E001C01B
:1006700080E0DF91CF911F910F910895EF92FF924B
:100680000F931F93CF93DF936115710511F480E0F1
:100690001CC041155105C1F07B01EC018C819D818D
:1006A0008A01080F191FB801CE010E941703882381
:1006B00071F3288139818C819D81B701820F931F4D
:1006C0000E94A60E1D830C8381E0DF91CF911F91C4
:1006D0000F91FF90EF900895CF93DF93EC01888105
:1006E0009981009711F00E94490D198218821D828C
:1006F0001C821B821A82DF91CF910895EF92FF92A4
:100700000F931F93CF93DF93EC017B018A01BA0112
:100710000E941703811104C0CE010E946C0307C020
:100720001D830C83B701888199810E94A60ECE019A
:10073000DF91CF911F910F91FF90EF9008958F92CD
:100740009F92AF92BF92EF92FF920F931F93CF931E
:10075000DF93CDB7DEB7A0970FB6F894DEBF0FBE1C
:10076000CDBF1C8E1B8E1E8E1D8E18A21F8E41E0CB
:1007700050E068E171E0CE014B960E947E038090CC
:100780001F0190902001A0902101B09022010091C2
:1007900045011091460180914301909144011E8AC8
:1007A0001D8A188E1F8A1A8E198E4AE09E012F5FAD
:1007B0003F4F7901B9010E947608F70101900020AE
:1007C000E9F73197AF014E195F09B701CE014596A0
:1007D0000E947E034F8D58A16B8D7C8DCE01459676
:1007E0000E943E03811104C0CE0145960E946C0315
:1007F0004AE0B701C8010E947608F7010190002085
:10080000E9F73197AF014E195F09B701CE0145965F
:100810000E943E03811104C0CE0145960E946C03E4
:100820004F8D58A16B8D7C8DCE0145960E943E0365
:10083000811104C0CE0145960E946C03870122E01D
:1008400044E0C501B4010E945608FC01019000205B
:10085000E9F73197AF01481B590BBC01CE01459612
:100860000E943E03811104C0CE0145960E946C0394
:100870001A8219821C821B821E821D826D897E89CA
:100880006115710529F0498D5A8DC7010E947E03BB
:100890008D899E890E94490D4D815E8169817A8191
:1008A00082E591E00E94700142E050E06AE171E06F
:1008B00082E591E00E94700189819A810E94490D30
:1008C0008B8D9C8D0E94490DA0960FB6F894DEBFCB
:1008D0000FBECDBFDF91CF911F910F91FF90EF9091
:1008E000BF90AF909F908F9008951F920F920FB678
:1008F0000F9211242F933F938F939F93AF93BF93A6
:1009000080914E0190914F01A0915001B091510101
:1009100030914D0123E0230F2D3720F40196A11DC6
:10092000B11D05C026E8230F0296A11DB11D20931D
:100930004D0180934E0190934F01A0935001B093CD
:1009400051018091490190914A01A0914B01B091D0
:100950004C010196A11DB11D8093490190934A015C
:10096000A0934B01B0934C01BF91AF919F918F9198
:100970003F912F910F900FBE0F901F9018951F92CF
:100980000F920FB60F9211242F933F934F935F93C3
:100990006F937F938F939F93AF93BF93EF93FF9347
:1009A00082E591E00E94E501FF91EF91BF91AF9147
:1009B0009F918F917F916F915F914F913F912F9177
:1009C0000F900FBE0F901F9018951F920F920FB6A9
:1009D0000F9211242F938F939F93EF93FF93E091A6
:1009E0006201F09163018081E0916801F0916901F9
:1009F00082FD12C0908180916B018F5F8F73209177
:100A00006C01821751F0E0916B01F0E0EE5AFE4F5D
:100A1000958F80936B0101C08081FF91EF919F9131
:100A20008F912F910F900FBE0F901F9018951F92CE
:100A30000F920FB60F9211242F933F934F935F9312
:100A40006F937F938F939F93AF93BF93EF93FF9396
:100A500080911E0187FF05C01092850010928400CE
:100A60001BC020911E01022E000C330B809113023B
:100A700090E02817390784F480911E01082E000C9D
:100A8000990BFC01EE0FFF1F8E0F9F1FFC01E15120
:100A9000FE4F808186FD15C080911E018F5F80937F
:100AA0001E0120911E01022E000C330B80911302B7
:100AB00090E028173907C4F480911E018C3064F14E
:100AC00013C080911E01082E000C990BFC01EE0F43
:100AD000FF1F8E0F9F1FFC01E151FE4F808160E0E0
:100AE0008F730E942301D8CF80918400909185005C
:100AF000049680349C4918F480E49CE905C08091F8
:100B000084009091850004969093890080938800DA
:100B10008FEF80931E013BC02091840030918500AF
:100B200080911E01082E000C990BFC01EE0FFF1F97
:100B30008E0F9F1FFC01E151FE4F81819281820F38
:100B4000931F909389008093880080911E01082E46
:100B5000000C990BFC01EE0FFF1F8E0F9F1FFC0175
:100B6000E151FE4F808186FF12C080911E01082E48
:100B7000000C990BFC01EE0FFF1F8E0F9F1FFC0155
:100B8000E151FE4F808161E08F730E942301FF914C
:100B9000EF91BF91AF919F918F917F916F915F91F5
:100BA0004F913F912F910F900FBE0F901F9018956E
:100BB000109255011092540188EE93E0A0E0B0E04D
:100BC0008093560190935701A0935801B093590117
:100BD0008AE091E0909353018093520185EC90E07C
:100BE00090935F0180935E0184EC90E090936101AB
:100BF0008093600180EC90E09093630180936201A8
:100C000081EC90E0909365018093640182EC90E028
:100C1000909367018093660186EC90E09093690160
:100C20008093680110926B0110926C0110926D011B
:100C300010926E01809113028C3020F08FEF809320
:100C4000140213C091E0980F909313028093140242
:100C500090E0FC01EE0FFF1F8E0F9F1FFC01E15182
:100C6000FE4F88EB9BE092838183809113028C304E
:100C700020F08FEF80931702089591E0980F9093E2
:100C800013028093170290E0FC01EE0FFF1F8E0FFE
:100C90009F1FFC01E151FE4F88EB9BE09283818313
:100CA0000895789484B5826084BD84B5816084BDE4
:100CB00085B5826085BD85B5816085BD80916E00FA
:100CC000816080936E00109281008091810082602B
:100CD0008093810080918100816080938100809168
:100CE00080008160809380008091B1008460809357
:100CF000B1008091B00081608093B00080917A0053
:100D0000846080937A0080917A00826080937A0078
:100D100080917A00816080937A0080917A00806867
:100D200080937A001092C100E0916201F09163011A
:100D300082E08083E0915E01F0915F011082E0919A
:100D40006001F09161018FEC808310926A01E09163
:100D50006601F091670186E08083E0916401F09183
:100D60006501808180618083E0916401F09165017B
:100D7000808188608083E0916401F09165018081C9
:100D800080688083E0916401F091650180818F7DAE
:100D90008083809114028C3008F042C089E00E9468
:100DA000040180911402E82FF0E09F01220F331F0D
:100DB000E20FF31FE151FE4F9081907C9960908388
:100DC00010921502109216026CE00E94050C90E041
:100DD0002CE0829FB001112440E050E09B01240FE1
:100DE000351FF901EE0FFF1F2E0F3F1FF901E151D3
:100DF000FE4F208126FD07C04F5F5F4F4C305105ED
:100E000069F70E940303E0911402F0E0CF01880F1C
:100E1000991FE80FF91FE151FE4F808180648083A4
:100E2000809117028C3008F042C08AE00E940401D1
:100E300080911702E82FF0E09F01220F331FE20F8D
:100E4000F31FE151FE4F9081907C9A609083109245
:100E50001802109219026CE00E94050C90E02CE040
:100E6000829FB001112440E050E09B01240F351F08
:100E7000F901EE0FFF1F2E0F3F1FF901E151FE4F49
:100E8000208126FD07C04F5F5F4F4C30510569F749
:100E90000E940303E0911702F0E0CF01880F991F31
:100EA000E80FF91FE151FE4F808180648083E3E207
:100EB000F1E080E090E01192119201968A30910564
:100EC000D1F71092380110923701DD24D39404EB4E
:100ED00010E030E4C32E4AE0E42EF12C2FB7F89452
:100EE00080914E0190914F01A0915001B09151011C
:100EF0002FBF40913B0150913C0160913D017091A9
:100F00003E01841B950BA60BB70B80349E47A54072
:100F1000B10508F09FC0609143017091440184E1E4
:100F200092E00E9480022FB7F89480914E01909138
:100F30004F01A0915001B09151012FBF40913F014D
:100F4000509140016091410170914201841B950BC9
:100F5000A60BB70B803D9740A105B10508F050C026
:100F6000609145017091460187E192E00E94800204
:100F7000C0927C0080917A00806480937A00809196
:100F80007A0086FDFCCF809178002091790090E076
:100F9000922BC0913701D0913801FE01EE0FFF1F57
:100FA000ED5DFE4F6091390170913A0120813181F0
:100FB000621B730B680F791F70933A0160933901BC
:100FC00091838083072E000C880B990B0E94DF0A07
:100FD00020E030E040E251E40E943F0C60931F01AA
:100FE000709320018093210190932201CE010196FC
:100FF000B7010E94110C909338018093370117C0FC
:101000000E949F032FB7F89480914E0190914F0159
:10101000A0915001B09151012FBF80933F01909357
:101020004001A0934101B0934201D09248018091C8
:101030004801882331F18091450190914601019644
:10104000B8010E94110C90934601809345011092C3
:10105000480117C00E949F032FB7F89480914E015A
:1010600090914F01A0915001B09151012FBF8093F9
:101070003B0190933C01A0933D01B0933E01D0927F
:10108000470180914701882371F08091430190913D
:1010900044010196B8010E94110C90934401809381
:1010A0004301109247010E94760218CFEF920F93EE
:1010B0001F93CF93DF93E80147FD02C034E001C0E6
:1010C00034E1042E000C550B57FF03C05195419598
:1010D0005109E32E022F242FAE010E949B08CE015E
:1010E000DF91CF911F910F91EF900895BB274A3068
:1010F00031F4992322F4BDE2909581959F4F0C9491
:101100008208BB27FB015527AA27880F991FAA1F12
:10111000A41710F0A41B83955051B9F7A05DAA3312
:1011200008F0A95DA193009779F7B111B1931192DD
:10113000CB010C94CD0AA9E0B0E0E1EAF8E00C9410
:10114000A30B6A01122FB02E2BE3201720F0FF24EF
:10115000F394F00E02C02CE3F22E0F2D27E0AE0127
:101160004F5F5F4F0E94F509BC014981842F897050
:10117000813031F0E1FC06C0E0FE06C090E205C01F
:101180009DE203C09BE201C090E05E2D507143FFE1
:101190003CC0911102C083E001C084E0811718F4C3
:1011A000212F281B01C020E051110BC0F601822F16
:1011B00030E2882319F031938150FBCFC20ED11C4D
:1011C00020E0992329F0D6019C93F60131966F0116
:1011D000C6010396E2FE0AC03EE4D6013C9341E418
:1011E00011964C93119712963C9306C03EE6F60179
:1011F000308341E641833283FC01322F40E23323C6
:1012000009F442C041933150FACF42FF44C09111DA
:1012100002C083E001C084E0811718F4212F281B4D
:1012200001C020E051110BC0F601822F30E288236B
:1012300019F031938150FBCFC20ED11C20E09923CD
:1012400029F0D6019C93F60131966F01C6010396F1
:10125000E2FE0BC039E4D6013C933EE411963C9388
:10126000119736E412963C9307C039E6F6013083B5
:101270003EE6318336E63283FC01322F40E23323EF
:1012800019F041933150FBCFFC01E20FF11D1082A8
:101290008EEF9FEFA6C021E030E0911102C020E068
:1012A00030E0161617061CF4FB01319602C0E1E08F
:1012B000F0E02E0F3F1FBB2021F0EB2DF0E0319628
:1012C00002C0E0E0F0E02E0F3F1FE12FF0E02E170C
:1012D0003F071CF4121B212F01C020E08E2D8871C6
:1012E00059F4F601822F30E2882319F031938150AE
:1012F000FBCFC20ED11C20E0992329F0D6019C938C
:10130000F60131966F0151110BC0F601822F90E367
:10131000882319F091938150FBCFC20ED11C20E09D
:101320000F2D060F9A81342F307144FF03C0913383
:1013300009F40150101624F4093018F008E001C037
:1013400001E0AB0177FF02C040E050E0FB01E41B8D
:10135000F50BA1E0B0E0AC0FBD1FEA0FFB1F8EE262
:10136000A82E4B01801A91080B2D10E011950195C4
:1013700011094F3FBFEF5B0721F4D601AC921196E4
:101380006D01641775072CF08416950614F481819D
:1013900001C080E3415051093196D60111967D017B
:1013A0004017510724F0D6018C936701E2CF6417F0
:1013B000750739F4963320F4953319F4311101C0CF
:1013C00081E3F6018083F701822F90E2882319F0F0
:1013D00091938150FBCFF701E20FF11D108280E065
:1013E00090E02996ECE00C94BF0B283008F027E041
:1013F0003327DA01990F311D87FD91600096610551
:10140000710539F432602E5F3D9330E32A95E1F7A0
:1014100008959F3F30F080387105610509F03C5F09
:101420003C5F3D93913008F08068911DDF93CF932E
:101430001F930F93FF92EF92192F987F9695E92FA4
:1014400096959695E90FFF27EE53FF4F992733277F
:10145000EE24FF24A701E70105900894079428F4DF
:10146000360FE71EF81E491F511D660F771F881F94
:10147000991F0694A1F70590079428F4E70EF81E2B
:10148000491F561FC11D770F881F991F661F06949D
:10149000A1F70590079428F4F80E491F561FC71F9F
:1014A000D11D880F991F661F771F0694A1F705901D
:1014B000079420F4490F561FC71FD81F990F661FA6
:1014C000771F881F0694A9F784911095177041F033
:1014D000D695C79557954795F794E7941A95C1F710
:1014E000E8E6F0E068941590159135916591959135
:1014F00005907FE27395E118F10A430B560BC90B77
:10150000D009C0F7E10CF11E431F561FC91FD01DA3
:101510007EF4703311F48A95E6CFE894015030F0F0
:10152000080F0AF40027021708F4202F2395022F32
:101530007A3328F079E37D932A95E9F710C07D93FB
:101540002A9589F606949795679537951795179478
:10155000E118F10A430B560BC90BD00998F02395FB
:101560007E9173957A3308F070E37C932013B8F77B
:101570007E9170617D9330F0839571E37D9370E38C
:101580002A95E1F71124EF90FF900F911F91CF91D1
:10159000DF91992787FD90950895DC01FC01672F65
:1015A00071917723E1F7329704C07C916D9370833A
:1015B0006291AE17BF07C8F30895E89409C097FB7E
:1015C0003EF490958095709561957F4F8F4F9F4F1A
:1015D0009923A9F0F92F96E9BB279395F69587955E
:1015E00077956795B795F111F8CFFAF4BB0F11F421
:1015F00060FF1BC06F5F7F4F8F4F9F4F16C08823C8
:1016000011F096E911C0772321F09EE8872F762FFD
:1016100005C0662371F096E8862F70E060E02AF03E
:101620009A95660F771F881FDAF7880F969587952A
:1016300097F9089597F99F6780E870E060E0089552
:101640009FEF80EC089500240A94161617061806DA
:101650000906089500240A941216130614060506B6
:101660000895092E0394000C11F4882352F0BB0F47
:1016700040F4BF2B11F460FF04C06F5F7F4F8F4FAA
:101680009F4F089557FD9058440F551F59F05F3FE5
:1016900071F04795880F97FB991F61F09F3F79F094
:1016A00087950895121613061406551FF2CF469516
:1016B000F1DF08C0161617061806991FF1CF869598
:1016C0007105610508940895E894BB27662777277C
:1016D000CB0197F90895052E97FB1EF400940E9404
:1016E000820B57FD07D00E94D40B07FC03D04EF4A9
:1016F0000C94820B50954095309521953F4F4F4F5C
:101700005F4F089590958095709561957F4F8F4FAD
:101710009F4F08950E94F60BA59F900DB49F900DCA
:10172000A49F800D911D11240895B7FF0C948A0B7E
:101730000E948A0B821B930B08952F923F924F9227
:101740005F926F927F928F929F92AF92BF92CF9251
:10175000DF92EF92FF920F931F93CF93DF93CDB75A
:10176000DEB7CA1BDB0B0FB6F894DEBF0FBECDBFD2
:1017700009942A88398848885F846E847D848C84A3
:101780009B84AA84B984C884DF80EE80FD800C81AC
:101790001B81AA81B981CE0FD11D0FB6F894DEBF8F
:1017A0000FBECDBFED010895A1E21A2EAA1BBB1BEF
:1017B000FD010DC0AA1FBB1FEE1FFF1FA217B3071D
:1017C000E407F50720F0A21BB30BE40BF50B661F33
:1017D000771F881F991F1A9469F7609570958095F7
:1017E00090959B01AC01BD01CF010895A29FB0016E
:1017F000B39FC001A39F700D811D1124911DB29F45
:10180000700D811D1124911D0895991B79E004C06C
:10181000991F961708F0961B881F7A95C9F780952F
:10182000089597FB072E16F4009407D077FD09D092
:101830000E94250C07FC05D03EF4909581959F4FA2
:101840000895709561957F4F0895AA1BBB1B51E1C8
:1018500007C0AA1FBB1FA617B70710F0A61BB70B20
:10186000881F991F5A95A9F780959095BC01CD01C5
:101870000895EE0FFF1F0590F491E02D09940E944A
:10188000530C0C94310B0E942A0B58F00E94230B2E
:1018900040F029F45F3F29F00C941A0B51110C947D
:1018A000650B0C94200B0E94420B68F39923B1F353
:1018B000552391F3951B550BBB27AA276217730776
:1018C000840738F09F5F5F4F220F331F441FAA1F0A
:1018D000A9F335D00E2E3AF0E0E832D091505040C6
:1018E000E695001CCAF72BD0FE2F29D0660F771F74
:1018F000881FBB1F261737074807AB07B0E809F05A
:10190000BB0B802DBF01FF2793585F4F3AF09E3FDE
:10191000510578F00C941A0B0C94650B5F3FE4F3BF
:10192000983ED4F3869577956795B795F7959F5F21
:10193000C9F7880F911D9695879597F90895E1E06D
:10194000660F771F881FBB1F621773078407BA07CC
:1019500020F0621B730B840BBA0BEE1F88F7E09527
:1019600008950F931F93CF93DF938230910510F466
:1019700082E090E0E0911C02F0911D0220E030E056
:10198000A0E0B0E0309719F14081518102811381CC
:1019900048175907C8F08417950769F4109731F074
:1019A00012960C93129713961C9327C000931C0257
:1019B00010931D0222C02115310519F0421753075B
:1019C00018F49A01BD01EF01DF01F801DBCF211509
:1019D0003105F9F0281B390B2430310580F48A8158
:1019E0009B816115710521F0FB019383828304C003
:1019F00090931D0280931C02FE01329644C0FE01AA
:101A0000E20FF31F81939193225031093983288388
:101A10003AC020911A0230911B02232B41F42091ED
:101A200002013091030130931B0220931A0220918E
:101A30000001309101012115310541F42DB73EB768
:101A40004091040150910501241B350BE0911A02CD
:101A5000F0911B02E217F307A0F42E1B3F0B28178F
:101A6000390778F0AC014E5F5F4F2417350748F017
:101A70004E0F5F1F50931B0240931A028193919364
:101A800002C0E0E0F0E0CF01DF91CF911F910F9114
:101A90000895CF93DF93009709F481C0FC0132973A
:101AA00013821282A0911C02B0911D02109781F442
:101AB00020813181820F931F20911A0230911B02E5
:101AC0002817390751F5F0931B02E0931A0267C0FB
:101AD000ED0120E030E0CE17DF0740F44A815B8162
:101AE0009E0141155105F1F0EA01F5CFD383C28380
:101AF00040815181840F951FC817D90759F48881F7
:101B00009981840F951F0296918380838A819B819E
:101B1000938382832115310529F4F0931D02E0930C
:101B20001C023DC0E901FB83EA8349915991C40F2E
:101B3000D51FEC17FD0761F480819181840F951FFB
:101B40000296E90199838883828193819B838A83AA
:101B5000E0E0F0E012968D919C911397009719F0B8
:101B6000FD01DC01F7CF8D919C9111979D012E5FB6
:101B70003F4F820F931F20911A0230911B022817AA
:101B8000390769F4309729F410921D0210921C0253
:101B900002C013821282B0931B02A0931A02DF913B
:101BA000CF910895A0E0B0E0E8EDFDE00C94A10B2A
:101BB000EC01009721F4CB010E94B10CB4C0FC01F0
:101BC000E60FF71F9C0122503109E217F30708F4D2
:101BD000A8C0D9010D911C91119706171707B0F0F5
:101BE0000530110508F49BC0C801049786179707B4
:101BF00008F495C002501109061B170B01931193AD
:101C00006D937C93CF010E94490D89C05B01A01A9E
:101C1000B10A4C01800E911EA0911C02B0911D02D0
:101C2000612C712CE12CF12C109709F446C08D9198
:101C30009C911197A815B905B1F56C0142E0C40E4D
:101C4000D11CCA14DB0478F14C018A189B0864018A
:101C500042E0C40ED11C1296BC9012971396AC9120
:101C6000B5E0CB16D10440F0B282A383918280828A
:101C7000D9016D937C9309C00E5F1F4F800F911F98
:101C8000F90191838083EB2DFA2FE114F10431F0F7
:101C9000D7011396FC93EE93129741C0F0931D0267
:101CA000E0931C023CC06816790608F43C017D01F3
:101CB00012960D90BC91A02DB7CF80911A029091F1
:101CC0001B0288169906E1F466167706C8F480911F
:101CD000000190910101009741F48DB79EB74091AA
:101CE000040150910501841B950BE817F907C8F40E
:101CF000F0931B02E0931A02F901718360830FC015
:101D0000CB010E94B10C7C01009759F0A801BE01E3
:101D10000E949D0ECE010E94490DC70104C0CE0154
:101D200002C080E090E0CDB7DEB7EEE00C94BD0BD2
:101D300081E090E0F8940C94AD0EFB01DC0102C050
:101D400001900D9241505040D8F70895FB01DC01FD
:0E1D500001900D920020E1F70895F894FFCF66
:101D5E0000001E02200000000000070270019E011C
:0E1D6E005402CF01AD01C1012C000D0A00008E
:00000001FF
